:100000000C9443000C9458000C9458000C94580025
:100010000C9458000C9458000C9458000C94580000
:100020000C9458000C9458000C9458000C945800F0
:100030000C9458000C9458000C9458000C945800E0
:100040000C9458000C9458000C9458000C945800D0
:100050000C9458000C9458000C9458000C945800C0
:100060000C9458000C94580005A84CCDB2D44EB94D
:100070003836A9020C50B9918688083CA6AAAA2A4B
:10008000BE000000803F11241FBECFEFD8E0DEBFCE
:10009000CDBF11E0A0E0B1E0ECEAFBE002C00590CA
:1000A0000D92AC32B107D9F70E9478000C94D405B8
:1000B0000C9400009093C5008093C40088E0809366
:1000C000C10086E08093C20008959091C00095FF22
:1000D000FCCF8093C6000895CF93DF93EC01899104
:1000E000811103C0DF91CF9108950E946500F7CF81
:1000F000CF93DF93CDB7DEB7C456D1090FB6F894CE
:10010000DEBF0FBECDBF259A2D9A87E690E00E94F4
:100110005A00C12CD12C760100E011E0CE010196ED
:100120005C0120ED3FE049EC50E4C701B6010E94BC
:10013000DB010E94480220E030E040E85FE30E94DB
:10014000E30020E030E040E054E40E94DB010E9444
:100150004F012D9A1F921F921F921F927F936F93B0
:100160007F936F931F930F93BF92AF920E94FC02F5
:10017000C5010E946C009FEF26E781E0915020406E
:100180008040E1F700C000002FE832EC45EF5CE36F
:10019000C701B6010E94E3006B017C010FB6F89421
:1001A000DEBF0FBECDBF20E030E048EC52E4C70117
:1001B000B6010E94D60118160CF0B3CFC12CD12C79
:1001C0007601AFCF5058BB27AA270E94FA000C94A3
:1001D0009C010E948E0138F00E94950120F039F4B4
:1001E0009F3F19F426F40C948B010EF4E095E7FB85
:1001F0000C948501E92F0E94AD0158F3BA176207EC
:1002000073078407950720F079F4A6F50C94CF01C5
:100210000EF4E0950B2EBA2FA02D0B01B901900121
:100220000C01CA01A0011124FF27591B99F0593F65
:1002300050F4503E68F11A16F040A22F232F342FAD
:100240004427585FF3CF469537952795A795F040FB
:100250005395C9F77EF41F16BA0B620B730B840B10
:10026000BAF09150A1F0FF0FBB1F661F771F881FC8
:10027000C2F70EC0BA0F621F731F841F48F4879520
:1002800077956795B795F7959E3F08F0B0CF939512
:10029000880F08F09927EE0F9795879508950E948B
:1002A00056016894B1110C94D00108950E94B501D3
:1002B00088F09F5798F0B92F9927B751B0F0E1F027
:1002C000660F771F881F991F1AF0BA95C9F714C0D7
:1002D000B13091F00E94CF01B1E008950C94CF01AC
:1002E000672F782F8827B85F39F0B93FCCF3869510
:1002F00077956795B395D9F73EF49095809570956D
:1003000061957F4F8F4F9F4F089597F99F6780E8C2
:1003100070E060E008959FEF80EC089500240A9457
:100320001616170618060906089500240A941216D0
:100330001306140605060895092E0394000C11F403
:10034000882352F0BB0F40F4BF2B11F460FF04C0B0
:100350006F5F7F4F8F4F9F4F089557FD9058440F09
:10036000551F59F05F3F71F04795880F97FB991F14
:1003700061F09F3F79F087950895121613061406D1
:10038000551FF2CF4695F1DF08C01616170618065E
:10039000991FF1CF86957105610508940895E89439
:1003A000BB2766277727CB0197F908950E94500253
:1003B00008F48FEF08950E94EE010C949C010E94B6
:1003C0008E0138F00E94950120F0952311F00C94D5
:1003D00085010C948B0111240C94D0010E94AD0175
:1003E00070F3959FC1F3950F50E0551F629FF00188
:1003F000729FBB27F00DB11D639FAA27F00DB11DA1
:10040000AA1F649F6627B00DA11D661F829F222729
:10041000B00DA11D621F739FB00DA11D621F839FB0
:10042000A00D611D221F749F3327A00D611D231F86
:10043000849F600D211D822F762F6A2F11249F57D4
:1004400050409AF0F1F088234AF0EE0FFF1FBB1FD7
:10045000661F771F881F91505040A9F79E3F510596
:1004600080F00C9485010C94D0015F3FE4F3983E3A
:10047000D4F3869577956795B795F795E7959F5F40
:10048000C1F7FE2B880F911D9695879597F90895D2
:100490009F930E9476020F9007FCEE5F0C949F02E0
:1004A000990F0008550FAA0BE0E8FEEF1616170685
:1004B000E807F907C0F012161306E407F50798F0ED
:1004C000621B730B840B950B39F40A2661F0232B06
:1004D000242B252B21F408950A2609F4A140A69582
:1004E0008FEF811D811D08950C948B010E94B50131
:1004F000D8F3E894E0E0BB279F57F0F02AED3FE007
:1005000049EC06C0EE0FBB0F661F771F881F28F04F
:10051000B23A62077307840728F0B25A620B730B72
:10052000840BE3959A9572F7803830F49A95BB0F57
:10053000661F771F881FD2F790480C94B502EF937F
:10054000E0FF07C0A2EA2AED3FE049EC5FEB0E9422
:10055000FA000E949C010F90039401FC9058E8E679
:10056000F0E00C94C1029F3F31F0915020F4879548
:1005700077956795B795880F911D9695879597F90B
:1005800008959F938F937F936F93FF93EF939B01B6
:10059000AC010E94DB01EF91FF910E94D5022F91E7
:1005A0003F914F915F910C94DB01DF93CF931F93A9
:1005B0000F93FF92EF92DF927B018C01689406C04B
:1005C000DA2EEF010E94EE01FE01E894A59125913B
:1005D000359145915591A6F3EF010E94FA00FE0175
:1005E0009701A801DA9469F7DF90EF90FF900F91DF
:1005F0001F91CF91DF910895AEE0B0E0E2E0F3E02B
:100600000C94AB050D891E8986E08C831A830983BF
:100610008FEF9FE79E838D83AE01475E5F4F6F89AB
:10062000788DCE0101960E941F032F813885020F1D
:10063000131FF80110822E96E4E00C94C705ABE07E
:10064000B0E0E5E2F3E00C949D057C013B018A01FA
:10065000FC0117821682838181FFC8C1CE010196F9
:100660005C01F7019381F30193FD859193FF8191E3
:100670003F01882309F453C1853239F493FD8591F4
:1006800093FF81913F01853229F4B70190E00E94E8
:100690000F05E7CF912C212C312CFFE1F31538F019
:1006A0008B3211F190F4803209F1833229F137FC59
:1006B0003CC020ED280F2A3050F536FE20C08AE0DD
:1006C000989E200D1124922E06C08D3291F0803319
:1006D00071F7689430F8F30193FD859193FF819150
:1006E0003F018111DACF21C0689431F8689432F863
:1006F000F2CF689433F8EFCF689434F8ECCFEAE0A7
:100700002E9E200D1124222E689435F8E4CF8E32CF
:1007100029F436FC04C1689436F8DDCF8C3619F420
:10072000689437F8D8CF8836B1F2982F9F7D9554CA
:100730009330E0F08336A1F18337C1F1833509F0BE
:1007400063C02801F2E04F0E511CF801C080D18037
:10075000692D70E036FC02C06FEF7FEFC6010E948A
:10076000F9044C01689437F882010AC00C5F1F4FEE
:10077000FFE3F98388248394912C6501E89437F88A
:1007800033FE2DC0522C8114910471F5552009F4CB
:1007900068CFB70180E290E00E940F055A94F6CF2F
:1007A000F801808189830E5F1F4FE4CF2801F2E0BA
:1007B0004F0E511CF801C080D180692D70E036FCCD
:1007C00002C06FEF7FEFC6010E9404054C01820159
:1007D000D5CFB70180E290E00E940F052A9428143B
:1007E000190409F0B0F7CECFF60137FC859137FE3A
:1007F00081916F01B70190E00E940F0551105A944A
:10080000F1E08F1A9108BFCF843619F0893609F0CC
:1008100077C0F80137FE6BC060817181828193815E
:100820000C5F1F4FF32DFF763F2E97FF09C0909569
:100830008095709561957F4F8F4F9F4F689437F8E3
:100840002AE030E0A5010E943F05C82ECA188C2C72
:10085000432C36FE0CC0E89440F8C91440F434FE32
:1008600005C032FC03C0F32DFE7E4F2E892C44FEC2
:1008700095C0FE01EC0DF11D8081803309F087C029
:10088000242D297E422E842D8870582E43FC95C03D
:1008900040FE8FC09C2C821418F42C0C922C9818BB
:1008A00044FE91C0B70180E390E00E940F0542FE34
:1008B00009C088E790E041FE02C088E590E0B701FA
:1008C0000E940F05C91408F48AC0CA94D12C9FEF66
:1008D000C91AD90ACA0CDB1CF60182916F01B70153
:1008E00090E00E940F05AC14BD04B1F74FCF6081BA
:1008F0007181072E000C880B990B0E5F1F4F92CF52
:10090000D32CE894D4F82AE030E0853739F1232D50
:10091000297FD22E8F3601F148F48835A9F0F701EE
:10092000868197812B96E2E10C94B905803749F0D6
:100930008837A9F7D4FE02C06894D2F820E130E0ED
:100940000DC06894D4F8F6CF34FE03C0822F8660C1
:10095000D82E20E132E002C028E030E0F801D7FED6
:100960000FC060817181828193810C5F1F4FA5014F
:100970000E943F05C82ECA183D2CE89437F867CF6F
:100980006081718190E080E00E5F1F4FF0CF42FCEC
:1009900002C0839478CF8394839475CF842D867816
:1009A00009F471CFF6CFB70180E290E00E940F0505
:1009B00083948214C0F3512C73CF522C5818821494
:1009C00008F46ECFF8CF842D867809F47BCF8BE2C4
:1009D00041FE80E247FC8DE2B70190E071CFB701A4
:1009E00080E390E00E940F059A946CCF8FEF9FEF09
:1009F00099CFFC010590615070400110D8F78095A7
:100A000090958E0F9F1F0895FC01615070400190DA
:100A10000110D8F7809590958E0F9F1F08950F9322
:100A20001F93CF93DF93182F092FEB018B8181FD4B
:100A300009C01FEF0FEF812F902FDF91CF911F91F2
:100A40000F91089582FF14C02E813F818C819D817A
:100A5000281739073CF4E881F981CF010196998381
:100A6000888310838E819F8101969F838E83E3CF3D
:100A7000E885F985812F0995892BA1F3DACFFA0151
:100A8000AA27283051F1203181F1E8946F936E7FCD
:100A90006E5F7F4F8F4F9F4FAF4FB1E03ED0B4E0BE
:100AA0003CD0670F781F891F9A1FA11D680F791FFF
:100AB0008A1F911DA11D6A0F711D811D911DA11D10
:100AC00020D009F468943F912AE0269F1124301920
:100AD000305D3193DEF6CF010895462F4770405DBB
:100AE0004193B3E00FD0C9F7F6CF462F4F70405D6A
:100AF0004A3318F0495D31FD4052419302D0A9F7C5
:100B0000EACFB4E0A6959795879577956795BA95BE
:100B1000C9F700976105710508959B01AC010A2E84
:100B200006945795479537952795BA95C9F7620F5B
:100B3000731F841F951FA01D08952F923F924F92FF
:100B40005F926F927F928F929F92AF92BF92CF925D
:100B5000DF92EF92FF920F931F93CF93DF93CDB766
:100B6000DEB7CA1BDB0B0FB6F894DEBF0FBECDBFDE
:100B700009942A88398848885F846E847D848C84AF
:100B80009B84AA84B984C884DF80EE80FD800C81B8
:100B90001B81AA81B981CE0FD11D0FB6F894DEBF9B
:0C0BA0000FBECDBFED010895F894FFCF0B
:100BAC00595F4D61737465723A25642C595F5368B3
:100BBC0061646F773A25642C44656C74613A2564E2
:0C0BCC002C416C61726D3A25640D0A002A
:00000001FF
